{
  "_format": "hh-sol-artifact-1",
  "contractName": "BondingCurveManager",
  "sourceName": "contracts/BondingCurveManager.sol",
  "abi": [
    {
      "inputs": [
        {
          "internalType": "address",
          "name": "_router",
          "type": "address"
        }
      ],
      "stateMutability": "nonpayable",
      "type": "constructor"
    },
    {
      "inputs": [],
      "name": "FailedToSendEth",
      "type": "error"
    },
    {
      "inputs": [],
      "name": "InsufficientPoolbalance",
      "type": "error"
    },
    {
      "inputs": [],
      "name": "InvalidLpFeePercentage",
      "type": "error"
    },
    {
      "inputs": [],
      "name": "InvalidRecipient",
      "type": "error"
    },
    {
      "inputs": [],
      "name": "MaxPoolBalanceReached",
      "type": "error"
    },
    {
      "inputs": [
        {
          "internalType": "address",
          "name": "owner",
          "type": "address"
        }
      ],
      "name": "OwnableInvalidOwner",
      "type": "error"
    },
    {
      "inputs": [
        {
          "internalType": "address",
          "name": "account",
          "type": "address"
        }
      ],
      "name": "OwnableUnauthorizedAccount",
      "type": "error"
    },
    {
      "inputs": [],
      "name": "PairCreationFailed",
      "type": "error"
    },
    {
      "inputs": [],
      "name": "ReentrancyGuardReentrantCall",
      "type": "error"
    },
    {
      "inputs": [],
      "name": "TokenAlreadyListed",
      "type": "error"
    },
    {
      "inputs": [],
      "name": "TokenDoesNotExist",
      "type": "error"
    },
    {
      "inputs": [],
      "name": "TokenTransferFailed",
      "type": "error"
    },
    {
      "inputs": [],
      "name": "ZeroEthSent",
      "type": "error"
    },
    {
      "inputs": [],
      "name": "ZeroTokenAmount",
      "type": "error"
    },
    {
      "anonymous": false,
      "inputs": [
        {
          "indexed": false,
          "internalType": "uint256",
          "name": "amount",
          "type": "uint256"
        }
      ],
      "name": "ClaimedFee",
      "type": "event"
    },
    {
      "anonymous": false,
      "inputs": [
        {
          "indexed": true,
          "internalType": "address",
          "name": "token",
          "type": "address"
        },
        {
          "indexed": false,
          "internalType": "uint256",
          "name": "ethAmount",
          "type": "uint256"
        },
        {
          "indexed": false,
          "internalType": "uint256",
          "name": "tokenAmount",
          "type": "uint256"
        }
      ],
      "name": "LiquidityAdded",
      "type": "event"
    },
    {
      "anonymous": false,
      "inputs": [
        {
          "indexed": true,
          "internalType": "address",
          "name": "token",
          "type": "address"
        },
        {
          "indexed": false,
          "internalType": "uint256",
          "name": "tokenAmount",
          "type": "uint256"
        },
        {
          "indexed": false,
          "internalType": "uint256",
          "name": "ethAmount",
          "type": "uint256"
        }
      ],
      "name": "LiquiditySwapped",
      "type": "event"
    },
    {
      "anonymous": false,
      "inputs": [
        {
          "indexed": true,
          "internalType": "address",
          "name": "previousOwner",
          "type": "address"
        },
        {
          "indexed": true,
          "internalType": "address",
          "name": "newOwner",
          "type": "address"
        }
      ],
      "name": "OwnershipTransferred",
      "type": "event"
    },
    {
      "anonymous": false,
      "inputs": [
        {
          "indexed": true,
          "internalType": "address",
          "name": "tokenAddress",
          "type": "address"
        },
        {
          "indexed": true,
          "internalType": "address",
          "name": "creator",
          "type": "address"
        },
        {
          "indexed": false,
          "internalType": "string",
          "name": "name",
          "type": "string"
        },
        {
          "indexed": false,
          "internalType": "string",
          "name": "symbol",
          "type": "string"
        }
      ],
      "name": "TokenCreated",
      "type": "event"
    },
    {
      "anonymous": false,
      "inputs": [
        {
          "indexed": true,
          "internalType": "address",
          "name": "token",
          "type": "address"
        },
        {
          "indexed": true,
          "internalType": "address",
          "name": "buyer",
          "type": "address"
        },
        {
          "indexed": false,
          "internalType": "uint256",
          "name": "ethAmount",
          "type": "uint256"
        },
        {
          "indexed": false,
          "internalType": "uint256",
          "name": "tokenAmount",
          "type": "uint256"
        }
      ],
      "name": "TokensBought",
      "type": "event"
    },
    {
      "anonymous": false,
      "inputs": [
        {
          "indexed": true,
          "internalType": "address",
          "name": "token",
          "type": "address"
        },
        {
          "indexed": true,
          "internalType": "address",
          "name": "seller",
          "type": "address"
        },
        {
          "indexed": false,
          "internalType": "uint256",
          "name": "tokenAmount",
          "type": "uint256"
        },
        {
          "indexed": false,
          "internalType": "uint256",
          "name": "ethAmount",
          "type": "uint256"
        }
      ],
      "name": "TokensSold",
      "type": "event"
    },
    {
      "inputs": [],
      "name": "BPS_DENOMINATOR",
      "outputs": [
        {
          "internalType": "uint256",
          "name": "",
          "type": "uint256"
        }
      ],
      "stateMutability": "view",
      "type": "function"
    },
    {
      "inputs": [],
      "name": "GRADUATION_THRESHOLD",
      "outputs": [
        {
          "internalType": "uint256",
          "name": "",
          "type": "uint256"
        }
      ],
      "stateMutability": "view",
      "type": "function"
    },
    {
      "inputs": [],
      "name": "R_TOKEN_RESERVE",
      "outputs": [
        {
          "internalType": "uint256",
          "name": "",
          "type": "uint256"
        }
      ],
      "stateMutability": "view",
      "type": "function"
    },
    {
      "inputs": [],
      "name": "TRADE_FEE_BPS",
      "outputs": [
        {
          "internalType": "uint256",
          "name": "",
          "type": "uint256"
        }
      ],
      "stateMutability": "view",
      "type": "function"
    },
    {
      "inputs": [],
      "name": "V_ETH_RESERVE",
      "outputs": [
        {
          "internalType": "uint256",
          "name": "",
          "type": "uint256"
        }
      ],
      "stateMutability": "view",
      "type": "function"
    },
    {
      "inputs": [],
      "name": "V_TOKEN_RESERVE",
      "outputs": [
        {
          "internalType": "uint256",
          "name": "",
          "type": "uint256"
        }
      ],
      "stateMutability": "view",
      "type": "function"
    },
    {
      "inputs": [],
      "name": "WETH",
      "outputs": [
        {
          "internalType": "address",
          "name": "",
          "type": "address"
        }
      ],
      "stateMutability": "view",
      "type": "function"
    },
    {
      "inputs": [
        {
          "internalType": "address",
          "name": "_token",
          "type": "address"
        }
      ],
      "name": "buy",
      "outputs": [],
      "stateMutability": "payable",
      "type": "function"
    },
    {
      "inputs": [
        {
          "internalType": "address",
          "name": "tokenAddress",
          "type": "address"
        },
        {
          "internalType": "uint256",
          "name": "ethAmount",
          "type": "uint256"
        }
      ],
      "name": "calculateCurvedBuyReturn",
      "outputs": [
        {
          "internalType": "uint256",
          "name": "",
          "type": "uint256"
        }
      ],
      "stateMutability": "view",
      "type": "function"
    },
    {
      "inputs": [
        {
          "internalType": "address",
          "name": "tokenAddress",
          "type": "address"
        },
        {
          "internalType": "uint256",
          "name": "tokenAmount",
          "type": "uint256"
        }
      ],
      "name": "calculateCurvedSellReturn",
      "outputs": [
        {
          "internalType": "uint256",
          "name": "",
          "type": "uint256"
        }
      ],
      "stateMutability": "view",
      "type": "function"
    },
    {
      "inputs": [
        {
          "internalType": "address",
          "name": "to",
          "type": "address"
        }
      ],
      "name": "claimFee",
      "outputs": [],
      "stateMutability": "nonpayable",
      "type": "function"
    },
    {
      "inputs": [
        {
          "internalType": "string",
          "name": "_name",
          "type": "string"
        },
        {
          "internalType": "string",
          "name": "_symbol",
          "type": "string"
        }
      ],
      "name": "create",
      "outputs": [],
      "stateMutability": "payable",
      "type": "function"
    },
    {
      "inputs": [
        {
          "internalType": "address",
          "name": "tokenAddress",
          "type": "address"
        }
      ],
      "name": "getCurrentTokenPrice",
      "outputs": [
        {
          "internalType": "uint256",
          "name": "",
          "type": "uint256"
        }
      ],
      "stateMutability": "view",
      "type": "function"
    },
    {
      "inputs": [
        {
          "internalType": "address",
          "name": "tokenAddress",
          "type": "address"
        }
      ],
      "name": "getMarketCap",
      "outputs": [
        {
          "internalType": "uint256",
          "name": "",
          "type": "uint256"
        }
      ],
      "stateMutability": "view",
      "type": "function"
    },
    {
      "inputs": [
        {
          "internalType": "address",
          "name": "tokenAddress",
          "type": "address"
        }
      ],
      "name": "getTokenEthBalance",
      "outputs": [
        {
          "internalType": "uint256",
          "name": "",
          "type": "uint256"
        }
      ],
      "stateMutability": "view",
      "type": "function"
    },
    {
      "inputs": [],
      "name": "owner",
      "outputs": [
        {
          "internalType": "address",
          "name": "",
          "type": "address"
        }
      ],
      "stateMutability": "view",
      "type": "function"
    },
    {
      "inputs": [],
      "name": "renounceOwnership",
      "outputs": [],
      "stateMutability": "nonpayable",
      "type": "function"
    },
    {
      "inputs": [
        {
          "internalType": "address",
          "name": "_token",
          "type": "address"
        },
        {
          "internalType": "uint256",
          "name": "tokenAmount",
          "type": "uint256"
        }
      ],
      "name": "sell",
      "outputs": [],
      "stateMutability": "nonpayable",
      "type": "function"
    },
    {
      "inputs": [
        {
          "internalType": "address",
          "name": "_bancorFormula",
          "type": "address"
        }
      ],
      "name": "setBancorFormula",
      "outputs": [],
      "stateMutability": "nonpayable",
      "type": "function"
    },
    {
      "inputs": [
        {
          "internalType": "address payable",
          "name": "_newRecipient",
          "type": "address"
        }
      ],
      "name": "setFeeRecipient",
      "outputs": [],
      "stateMutability": "nonpayable",
      "type": "function"
    },
    {
      "inputs": [
        {
          "internalType": "uint256",
          "name": "_lpFeePercentage",
          "type": "uint256"
        }
      ],
      "name": "setLpFeePercentage",
      "outputs": [],
      "stateMutability": "nonpayable",
      "type": "function"
    },
    {
      "inputs": [
        {
          "internalType": "address",
          "name": "",
          "type": "address"
        }
      ],
      "name": "tokenInfos",
      "outputs": [
        {
          "internalType": "address",
          "name": "creator",
          "type": "address"
        },
        {
          "internalType": "address",
          "name": "tokenAddress",
          "type": "address"
        },
        {
          "internalType": "uint256",
          "name": "vReserveEth",
          "type": "uint256"
        },
        {
          "internalType": "uint256",
          "name": "vReserveToken",
          "type": "uint256"
        },
        {
          "internalType": "uint256",
          "name": "rReserveEth",
          "type": "uint256"
        },
        {
          "internalType": "int256",
          "name": "rReserveToken",
          "type": "int256"
        },
        {
          "internalType": "bool",
          "name": "liquidityMigrated",
          "type": "bool"
        }
      ],
      "stateMutability": "view",
      "type": "function"
    },
    {
      "inputs": [
        {
          "internalType": "uint256",
          "name": "index",
          "type": "uint256"
        }
      ],
      "name": "tokenList",
      "outputs": [
        {
          "internalType": "address",
          "name": "",
          "type": "address"
        }
      ],
      "stateMutability": "view",
      "type": "function"
    },
    {
      "inputs": [
        {
          "internalType": "uint256",
          "name": "",
          "type": "uint256"
        }
      ],
      "name": "tokenListArray",
      "outputs": [
        {
          "internalType": "address",
          "name": "",
          "type": "address"
        }
      ],
      "stateMutability": "view",
      "type": "function"
    },
    {
      "inputs": [
        {
          "internalType": "address",
          "name": "tokenAddress",
          "type": "address"
        }
      ],
      "name": "tokens",
      "outputs": [
        {
          "internalType": "address",
          "name": "token",
          "type": "address"
        },
        {
          "internalType": "uint256",
          "name": "tokenbalance",
          "type": "uint256"
        },
        {
          "internalType": "uint256",
          "name": "ethBalance",
          "type": "uint256"
        },
        {
          "internalType": "bool",
          "name": "isListed",
          "type": "bool"
        }
      ],
      "stateMutability": "view",
      "type": "function"
    },
    {
      "inputs": [],
      "name": "totalFee",
      "outputs": [
        {
          "internalType": "uint256",
          "name": "",
          "type": "uint256"
        }
      ],
      "stateMutability": "view",
      "type": "function"
    },
    {
      "inputs": [
        {
          "internalType": "address",
          "name": "newOwner",
          "type": "address"
        }
      ],
      "name": "transferOwnership",
      "outputs": [],
      "stateMutability": "nonpayable",
      "type": "function"
    },
    {
      "inputs": [],
      "name": "uniswapRouter",
      "outputs": [
        {
          "internalType": "address",
          "name": "",
          "type": "address"
        }
      ],
      "stateMutability": "view",
      "type": "function"
    },
    {
      "inputs": [
        {
          "internalType": "uint256",
          "name": "value",
          "type": "uint256"
        }
      ],
      "name": "updateFeeRate",
      "outputs": [],
      "stateMutability": "nonpayable",
      "type": "function"
    },
    {
      "inputs": [
        {
          "internalType": "uint256",
          "name": "value",
          "type": "uint256"
        }
      ],
      "name": "updateGraduationThreshold",
      "outputs": [],
      "stateMutability": "nonpayable",
      "type": "function"
    },
    {
      "inputs": [
        {
          "internalType": "uint256",
          "name": "_vEthReserve",
          "type": "uint256"
        },
        {
          "internalType": "uint256",
          "name": "_vTokenReserve",
          "type": "uint256"
        },
        {
          "internalType": "uint256",
          "name": "_rTokenReserve",
          "type": "uint256"
        }
      ],
      "name": "updateReserves",
      "outputs": [],
      "stateMutability": "nonpayable",
      "type": "function"
    },
    {
      "stateMutability": "payable",
      "type": "receive"
    }
  ],
  "bytecode": "0x608060405234801561001057600080fd5b50604051614c52380380614c528339818101604052810190610032919061032e565b33600073ffffffffffffffffffffffffffffffffffffffff168173ffffffffffffffffffffffffffffffffffffffff16036100a55760006040517f1e4fbdf700000000000000000000000000000000000000000000000000000000815260040161009c919061036a565b60405180910390fd5b6100b48161020760201b60201c565b506001808190555080600360006101000a81548173ffffffffffffffffffffffffffffffffffffffff021916908373ffffffffffffffffffffffffffffffffffffffff1602179055508073ffffffffffffffffffffffffffffffffffffffff1663ad5c46486040518163ffffffff1660e01b8152600401602060405180830381865afa158015610148573d6000803e3d6000fd5b505050506040513d601f19601f8201168201806040525081019061016c919061032e565b600460006101000a81548173ffffffffffffffffffffffffffffffffffffffff021916908373ffffffffffffffffffffffffffffffffffffffff16021790555066354a6ba7a180006005819055506b037790968dc8efffd10000006006819055506b029009752660ad62af800000600781905550606460088190555061271060098190555068014d1120d7b1600000600a8190555050610385565b60008060009054906101000a900473ffffffffffffffffffffffffffffffffffffffff169050816000806101000a81548173ffffffffffffffffffffffffffffffffffffffff021916908373ffffffffffffffffffffffffffffffffffffffff1602179055508173ffffffffffffffffffffffffffffffffffffffff168173ffffffffffffffffffffffffffffffffffffffff167f8be0079c531659141344cd1fd0a4f28419497f9722a3daafe3b4186f6b6457e060405160405180910390a35050565b600080fd5b600073ffffffffffffffffffffffffffffffffffffffff82169050919050565b60006102fb826102d0565b9050919050565b61030b816102f0565b811461031657600080fd5b50565b60008151905061032881610302565b92915050565b600060208284031215610344576103436102cb565b5b600061035284828501610319565b91505092915050565b610364816102f0565b82525050565b600060208201905061037f600083018461035b565b92915050565b6148be806103946000396000f3fe6080604052600436106101dc5760003560e01c80638da5cb5b11610102578063be33f6bd11610095578063e74b981b11610064578063e74b981b146106eb578063f088d54714610714578063f2fde38b14610730578063fcfc0c0914610759576101e3565b8063be33f6bd14610606578063d146d31d14610643578063e1a4521814610680578063e4860339146106ab576101e3565b80639ead7222116100d15780639ead722214610530578063ad5c46481461056d578063b1a51f3514610598578063ba46ae72146105c3576101e3565b80638da5cb5b146104865780638e72b23f146104b15780639185f598146104da578063995c86d514610505576101e3565b80636148813c1161017a578063735de9f711610149578063735de9f7146103cc5780637b84fda5146103f75780637b90a58214610420578063880af7931461045d576101e3565b80636148813c1461033a5780636c197ff5146103635780636ebc51e11461038c578063715018a6146103b5576101e3565b80631df4ccfc116101b65780631df4ccfc1461026a578063208597b01461029557806331f3efba146102c057806341528e72146102fd576101e3565b806307ae6b55146101e857806309f72da314610211578063198e2b8a1461024e576101e3565b366101e357005b600080fd5b3480156101f457600080fd5b5061020f600480360381019061020a919061243b565b610784565b005b34801561021d57600080fd5b50610238600480360381019061023391906124c6565b610796565b6040516102459190612502565b60405180910390f35b61026860048036038101906102639190612663565b6108b3565b005b34801561027657600080fd5b5061027f610c8f565b60405161028c9190612502565b60405180910390f35b3480156102a157600080fd5b506102aa610c95565b6040516102b79190612502565b60405180910390f35b3480156102cc57600080fd5b506102e760048036038101906102e291906126db565b610c9b565b6040516102f49190612502565b60405180910390f35b34801561030957600080fd5b50610324600480360381019061031f91906124c6565b610df5565b6040516103319190612502565b60405180910390f35b34801561034657600080fd5b50610361600480360381019061035c919061271b565b610ed9565b005b34801561036f57600080fd5b5061038a600480360381019061038591906126db565b610efb565b005b34801561039857600080fd5b506103b360048036038101906103ae91906124c6565b611321565b005b3480156103c157600080fd5b506103ca6113ba565b005b3480156103d857600080fd5b506103e16113ce565b6040516103ee919061277d565b60405180910390f35b34801561040357600080fd5b5061041e6004803603810190610419919061243b565b6113f4565b005b34801561042c57600080fd5b506104476004803603810190610442919061243b565b611406565b604051610454919061277d565b60405180910390f35b34801561046957600080fd5b50610484600480360381019061047f919061243b565b611445565b005b34801561049257600080fd5b5061049b611457565b6040516104a8919061277d565b60405180910390f35b3480156104bd57600080fd5b506104d860048036038101906104d391906124c6565b611480565b005b3480156104e657600080fd5b506104ef61148b565b6040516104fc9190612502565b60405180910390f35b34801561051157600080fd5b5061051a611491565b6040516105279190612502565b60405180910390f35b34801561053c57600080fd5b506105576004803603810190610552919061243b565b611497565b604051610564919061277d565b60405180910390f35b34801561057957600080fd5b50610582611526565b60405161058f919061277d565b60405180910390f35b3480156105a457600080fd5b506105ad61154c565b6040516105ba9190612502565b60405180910390f35b3480156105cf57600080fd5b506105ea60048036038101906105e591906124c6565b611552565b6040516105fd97969594939291906127cc565b60405180910390f35b34801561061257600080fd5b5061062d600480360381019061062891906126db565b6115e1565b60405161063a9190612502565b60405180910390f35b34801561064f57600080fd5b5061066a600480360381019061066591906124c6565b61171e565b6040516106779190612502565b60405180910390f35b34801561068c57600080fd5b5061069561190f565b6040516106a29190612502565b60405180910390f35b3480156106b757600080fd5b506106d260048036038101906106cd91906124c6565b611915565b6040516106e2949392919061283b565b60405180910390f35b3480156106f757600080fd5b50610712600480360381019061070d91906128be565b611a07565b005b61072e600480360381019061072991906124c6565b611a12565b005b34801561073c57600080fd5b50610757600480360381019061075291906124c6565b611dc3565b005b34801561076557600080fd5b5061076e611e49565b60405161077b9190612502565b60405180910390f35b61078c611e4f565b80600a8190555050565b600080600260008473ffffffffffffffffffffffffffffffffffffffff1673ffffffffffffffffffffffffffffffffffffffff1681526020019081526020016000209050600073ffffffffffffffffffffffffffffffffffffffff168160010160009054906101000a900473ffffffffffffffffffffffffffffffffffffffff1673ffffffffffffffffffffffffffffffffffffffff160361086d576040517f08c379a000000000000000000000000000000000000000000000000000000000815260040161086490612948565b60405180910390fd5b60008160030154036108835760009150506108ae565b8060030154670de0b6b3a764000082600201546108a09190612997565b6108aa9190612a08565b9150505b919050565b60008282336040516108c4906123e4565b6108d093929190612aa7565b604051809103906000f0801580156108ec573d6000803e3d6000fd5b5090506000600260008373ffffffffffffffffffffffffffffffffffffffff1673ffffffffffffffffffffffffffffffffffffffff1681526020019081526020016000209050338160000160006101000a81548173ffffffffffffffffffffffffffffffffffffffff021916908373ffffffffffffffffffffffffffffffffffffffff160217905550818160010160006101000a81548173ffffffffffffffffffffffffffffffffffffffff021916908373ffffffffffffffffffffffffffffffffffffffff160217905550600081600401819055506007548160050181905550600554816002018190555060065481600301819055506000341115610ba2576000600954600854346109ff9190612997565b610a099190612a08565b905060008134610a199190612aec565b9050600080610a2d60055460065485611ed6565b915091506000818660030154610a439190612aec565b905082866002018190555081866003018190555083866004018190555080866005016000828254610a749190612b20565b925050819055508673ffffffffffffffffffffffffffffffffffffffff166364a7102b33836040518363ffffffff1660e01b8152600401610ab6929190612b63565b600060405180830381600087803b158015610ad057600080fd5b505af1158015610ae4573d6000803e3d6000fd5b505050503373ffffffffffffffffffffffffffffffffffffffff168773ffffffffffffffffffffffffffffffffffffffff167fc244d500136edffae7025aaf7fbd7a07193ac544a1d0cc3132cf2a32452d340c3484604051610b47929190612b8c565b60405180910390a384600b6000828254610b619190612bb5565b92505081905550600a54866004015410158015610b8d57508560060160009054906101000a900460ff16155b15610b9c57610b9b87611f14565b5b50505050505b60008160060160006101000a81548160ff021916908315150217905550600c829080600181540180825580915050600190039060005260206000200160009091909190916101000a81548173ffffffffffffffffffffffffffffffffffffffff021916908373ffffffffffffffffffffffffffffffffffffffff1602179055503373ffffffffffffffffffffffffffffffffffffffff168273ffffffffffffffffffffffffffffffffffffffff167fd5d05a8421149c74fd223cfc823befb883babf9bf0b0e4d6bf9c8fdb70e59bb48686604051610c81929190612be9565b60405180910390a350505050565b600b5481565b60075481565b600080600260008573ffffffffffffffffffffffffffffffffffffffff1673ffffffffffffffffffffffffffffffffffffffff1681526020019081526020016000209050600073ffffffffffffffffffffffffffffffffffffffff168160010160009054906101000a900473ffffffffffffffffffffffffffffffffffffffff1673ffffffffffffffffffffffffffffffffffffffff1603610d72576040517f08c379a0000000000000000000000000000000000000000000000000000000008152600401610d6990612948565b60405180910390fd5b6000838260030154610d849190612bb5565b905060008183600301548460020154610d9d9190612997565b610da79190612a08565b90506000818460020154610dbb9190612aec565b9050600060095460085483610dd09190612997565b610dda9190612a08565b90508082610de89190612aec565b9550505050505092915050565b600080600260008473ffffffffffffffffffffffffffffffffffffffff1673ffffffffffffffffffffffffffffffffffffffff1681526020019081526020016000209050600073ffffffffffffffffffffffffffffffffffffffff168160010160009054906101000a900473ffffffffffffffffffffffffffffffffffffffff1673ffffffffffffffffffffffffffffffffffffffff1603610ecc576040517f08c379a0000000000000000000000000000000000000000000000000000000008152600401610ec390612948565b60405180910390fd5b8060040154915050919050565b610ee1611e4f565b826005819055508160068190555080600781905550505050565b610f0361228b565b6000600260008473ffffffffffffffffffffffffffffffffffffffff1673ffffffffffffffffffffffffffffffffffffffff1681526020019081526020016000209050600073ffffffffffffffffffffffffffffffffffffffff168160010160009054906101000a900473ffffffffffffffffffffffffffffffffffffffff1673ffffffffffffffffffffffffffffffffffffffff1603610fd9576040517f08c379a0000000000000000000000000000000000000000000000000000000008152600401610fd090612948565b60405180910390fd5b6000821161101c576040517f08c379a000000000000000000000000000000000000000000000000000000000815260040161101390612c6c565b60405180910390fd5b8060060160009054906101000a900460ff161561106e576040517f08c379a000000000000000000000000000000000000000000000000000000000815260040161106590612cd8565b60405180910390fd5b60008282600301546110809190612bb5565b9050600081836003015484600201546110999190612997565b6110a39190612a08565b905060008184600201546110b79190612aec565b90506000600954600854836110cc9190612997565b6110d69190612a08565b9050600081836110e69190612aec565b90506000831180156110fc575085600401548311155b61113b576040517f08c379a000000000000000000000000000000000000000000000000000000000815260040161113290612d44565b60405180910390fd5b60008873ffffffffffffffffffffffffffffffffffffffff166323b872dd33308b6040518463ffffffff1660e01b815260040161117a93929190612d64565b6020604051808303816000875af1158015611199573d6000803e3d6000fd5b505050506040513d601f19601f820116820180604052508101906111bd9190612dc7565b9050806111ff576040517f08c379a00000000000000000000000000000000000000000000000000000000081526004016111f690612e40565b60405180910390fd5b848760020181905550858760030181905550838760040160008282546112259190612aec565b92505081905550878760050160008282546112409190612e60565b925050819055503373ffffffffffffffffffffffffffffffffffffffff166108fc839081150290604051600060405180830381858888f1935050505015801561128d573d6000803e3d6000fd5b5082600b60008282546112a09190612bb5565b925050819055503373ffffffffffffffffffffffffffffffffffffffff168973ffffffffffffffffffffffffffffffffffffffff167f697c42d55a5e1fed3f464ec6f38b32546a0bd368dc8068b065c67566d73f32908a85604051611306929190612b8c565b60405180910390a35050505050505061131d6122d1565b5050565b611329611e4f565b6000600b5490506000600b819055508173ffffffffffffffffffffffffffffffffffffffff166108fc829081150290604051600060405180830381858888f1935050505015801561137e573d6000803e3d6000fd5b507f53baf1529f2929bb4b52d4b88511dbc886457cc4b85b48078f03b7c0c201c542816040516113ae9190612502565b60405180910390a15050565b6113c2611e4f565b6113cc60006122da565b565b600360009054906101000a900473ffffffffffffffffffffffffffffffffffffffff1681565b6113fc611e4f565b8060088190555050565b600c818154811061141657600080fd5b906000526020600020016000915054906101000a900473ffffffffffffffffffffffffffffffffffffffff1681565b61144d611e4f565b8060088190555050565b60008060009054906101000a900473ffffffffffffffffffffffffffffffffffffffff16905090565b611488611e4f565b50565b60085481565b60055481565b6000600c8054905082106114e0576040517f08c379a00000000000000000000000000000000000000000000000000000000081526004016114d790612ef0565b60405180910390fd5b600c82815481106114f4576114f3612f10565b5b9060005260206000200160009054906101000a900473ffffffffffffffffffffffffffffffffffffffff169050919050565b600460009054906101000a900473ffffffffffffffffffffffffffffffffffffffff1681565b60065481565b60026020528060005260406000206000915090508060000160009054906101000a900473ffffffffffffffffffffffffffffffffffffffff16908060010160009054906101000a900473ffffffffffffffffffffffffffffffffffffffff16908060020154908060030154908060040154908060050154908060060160009054906101000a900460ff16905087565b600080600260008573ffffffffffffffffffffffffffffffffffffffff1673ffffffffffffffffffffffffffffffffffffffff1681526020019081526020016000209050600073ffffffffffffffffffffffffffffffffffffffff168160010160009054906101000a900473ffffffffffffffffffffffffffffffffffffffff1673ffffffffffffffffffffffffffffffffffffffff16036116b8576040517f08c379a00000000000000000000000000000000000000000000000000000000081526004016116af90612948565b60405180910390fd5b6000600954600854856116cb9190612997565b6116d59190612a08565b9050600081856116e59190612aec565b90506000806116fd856002015486600301548561239e565b915091508085600301546117119190612aec565b9550505050505092915050565b600080600260008473ffffffffffffffffffffffffffffffffffffffff1673ffffffffffffffffffffffffffffffffffffffff1681526020019081526020016000209050600073ffffffffffffffffffffffffffffffffffffffff168160010160009054906101000a900473ffffffffffffffffffffffffffffffffffffffff1673ffffffffffffffffffffffffffffffffffffffff16036117f5576040517f08c379a00000000000000000000000000000000000000000000000000000000081526004016117ec90612948565b60405180910390fd5b60008373ffffffffffffffffffffffffffffffffffffffff166318160ddd6040518163ffffffff1660e01b8152600401602060405180830381865afa158015611842573d6000803e3d6000fd5b505050506040513d601f19601f820116820180604052508101906118669190612f54565b905060003073ffffffffffffffffffffffffffffffffffffffff166309f72da3866040518263ffffffff1660e01b81526004016118a3919061277d565b602060405180830381865afa1580156118c0573d6000803e3d6000fd5b505050506040513d601f19601f820116820180604052508101906118e49190612f54565b9050670de0b6b3a764000081836118fb9190612997565b6119059190612a08565b9350505050919050565b60095481565b6000806000806000600260008773ffffffffffffffffffffffffffffffffffffffff1673ffffffffffffffffffffffffffffffffffffffff16815260200190815260200160002090508060010160009054906101000a900473ffffffffffffffffffffffffffffffffffffffff1660008260050154121561199757600061199d565b81600501545b8260040154600073ffffffffffffffffffffffffffffffffffffffff168460010160009054906101000a900473ffffffffffffffffffffffffffffffffffffffff1673ffffffffffffffffffffffffffffffffffffffff1614159450945094509450509193509193565b611a0f611e4f565b50565b611a1a61228b565b6000600260008373ffffffffffffffffffffffffffffffffffffffff1673ffffffffffffffffffffffffffffffffffffffff1681526020019081526020016000209050600073ffffffffffffffffffffffffffffffffffffffff168160010160009054906101000a900473ffffffffffffffffffffffffffffffffffffffff1673ffffffffffffffffffffffffffffffffffffffff1603611af0576040517f08c379a0000000000000000000000000000000000000000000000000000000008152600401611ae790612948565b60405180910390fd5b60003411611b33576040517f08c379a0000000000000000000000000000000000000000000000000000000008152600401611b2a90612c6c565b60405180910390fd5b8060060160009054906101000a900460ff1615611b85576040517f08c379a0000000000000000000000000000000000000000000000000000000008152600401611b7c90612cd8565b60405180910390fd5b600060095460085434611b989190612997565b611ba29190612a08565b905060008134611bb29190612aec565b9050600080611bca8560020154866003015485611ed6565b915091506000818660030154611be09190612aec565b905060008111611c25576040517f08c379a0000000000000000000000000000000000000000000000000000000008152600401611c1c90612fcd565b60405180910390fd5b82866002018190555081866003018190555083866004016000828254611c4b9190612bb5565b9250508190555080866005016000828254611c669190612b20565b925050819055508560010160009054906101000a900473ffffffffffffffffffffffffffffffffffffffff1673ffffffffffffffffffffffffffffffffffffffff166364a7102b33836040518363ffffffff1660e01b8152600401611ccc929190612b63565b600060405180830381600087803b158015611ce657600080fd5b505af1158015611cfa573d6000803e3d6000fd5b5050505084600b6000828254611d109190612bb5565b925050819055503373ffffffffffffffffffffffffffffffffffffffff168773ffffffffffffffffffffffffffffffffffffffff167fc244d500136edffae7025aaf7fbd7a07193ac544a1d0cc3132cf2a32452d340c3484604051611d76929190612b8c565b60405180910390a3600a54866004015410158015611da357508560060160009054906101000a900460ff16155b15611db257611db187611f14565b5b505050505050611dc06122d1565b50565b611dcb611e4f565b600073ffffffffffffffffffffffffffffffffffffffff168173ffffffffffffffffffffffffffffffffffffffff1603611e3d5760006040517f1e4fbdf7000000000000000000000000000000000000000000000000000000008152600401611e34919061277d565b60405180910390fd5b611e46816122da565b50565b600a5481565b611e576123dc565b73ffffffffffffffffffffffffffffffffffffffff16611e75611457565b73ffffffffffffffffffffffffffffffffffffffff1614611ed457611e986123dc565b6040517f118cdaa7000000000000000000000000000000000000000000000000000000008152600401611ecb919061277d565b60405180910390fd5b565b60008060008584611ee79190612bb5565b90506000818688611ef89190612997565b611f029190612a08565b90508181935093505050935093915050565b6000600260008373ffffffffffffffffffffffffffffffffffffffff1673ffffffffffffffffffffffffffffffffffffffff168152602001908152602001600020905060018160060160006101000a81548160ff02191690831515021790555060008082600501541215611f89576000611f8f565b81600501545b90506000826004015490506000821115612011578373ffffffffffffffffffffffffffffffffffffffff166364a7102b30846040518363ffffffff1660e01b8152600401611fde929190612b63565b600060405180830381600087803b158015611ff857600080fd5b505af115801561200c573d6000803e3d6000fd5b505050505b60008211156120bc578373ffffffffffffffffffffffffffffffffffffffff1663095ea7b3600360009054906101000a900473ffffffffffffffffffffffffffffffffffffffff16846040518363ffffffff1660e01b8152600401612077929190612b63565b6020604051808303816000875af1158015612096573d6000803e3d6000fd5b505050506040513d601f19601f820116820180604052508101906120ba9190612dc7565b505b6000811180156120cc5750600082115b1561223457600360009054906101000a900473ffffffffffffffffffffffffffffffffffffffff1673ffffffffffffffffffffffffffffffffffffffff1663f305d719828685600080600061012c426121259190612bb5565b6040518863ffffffff1660e01b815260040161214696959493929190613032565b60606040518083038185885af19350505050801561218257506040513d601f19601f8201168201806040525081019061217f9190613093565b60015b6121db578373ffffffffffffffffffffffffffffffffffffffff167fac1d76749e5447b7b16f5ab61447e1bd502f3bb4807af3b28e620d1700a6ee4582846040516121ce929190612b8c565b60405180910390a261222f565b8673ffffffffffffffffffffffffffffffffffffffff167fac1d76749e5447b7b16f5ab61447e1bd502f3bb4807af3b28e620d1700a6ee458385604051612223929190612b8c565b60405180910390a25050505b612285565b8373ffffffffffffffffffffffffffffffffffffffff167fac1d76749e5447b7b16f5ab61447e1bd502f3bb4807af3b28e620d1700a6ee45828460405161227c929190612b8c565b60405180910390a25b50505050565b6002600154036122c7576040517f3ee5aeb500000000000000000000000000000000000000000000000000000000815260040160405180910390fd5b6002600181905550565b60018081905550565b60008060009054906101000a900473ffffffffffffffffffffffffffffffffffffffff169050816000806101000a81548173ffffffffffffffffffffffffffffffffffffffff021916908373ffffffffffffffffffffffffffffffffffffffff1602179055508173ffffffffffffffffffffffffffffffffffffffff168173ffffffffffffffffffffffffffffffffffffffff167f8be0079c531659141344cd1fd0a4f28419497f9722a3daafe3b4186f6b6457e060405160405180910390a35050565b600080600085846123af9190612bb5565b905060008186886123c09190612997565b6123ca9190612a08565b90508181935093505050935093915050565b600033905090565b6117cb806130e783390190565b6000604051905090565b600080fd5b600080fd5b6000819050919050565b61241881612405565b811461242357600080fd5b50565b6000813590506124358161240f565b92915050565b600060208284031215612451576124506123fb565b5b600061245f84828501612426565b91505092915050565b600073ffffffffffffffffffffffffffffffffffffffff82169050919050565b600061249382612468565b9050919050565b6124a381612488565b81146124ae57600080fd5b50565b6000813590506124c08161249a565b92915050565b6000602082840312156124dc576124db6123fb565b5b60006124ea848285016124b1565b91505092915050565b6124fc81612405565b82525050565b600060208201905061251760008301846124f3565b92915050565b600080fd5b600080fd5b6000601f19601f8301169050919050565b7f4e487b7100000000000000000000000000000000000000000000000000000000600052604160045260246000fd5b61257082612527565b810181811067ffffffffffffffff8211171561258f5761258e612538565b5b80604052505050565b60006125a26123f1565b90506125ae8282612567565b919050565b600067ffffffffffffffff8211156125ce576125cd612538565b5b6125d782612527565b9050602081019050919050565b82818337600083830152505050565b6000612606612601846125b3565b612598565b90508281526020810184848401111561262257612621612522565b5b61262d8482856125e4565b509392505050565b600082601f83011261264a5761264961251d565b5b813561265a8482602086016125f3565b91505092915050565b6000806040838503121561267a576126796123fb565b5b600083013567ffffffffffffffff81111561269857612697612400565b5b6126a485828601612635565b925050602083013567ffffffffffffffff8111156126c5576126c4612400565b5b6126d185828601612635565b9150509250929050565b600080604083850312156126f2576126f16123fb565b5b6000612700858286016124b1565b925050602061271185828601612426565b9150509250929050565b600080600060608486031215612734576127336123fb565b5b600061274286828701612426565b935050602061275386828701612426565b925050604061276486828701612426565b9150509250925092565b61277781612488565b82525050565b6000602082019050612792600083018461276e565b92915050565b6000819050919050565b6127ab81612798565b82525050565b60008115159050919050565b6127c6816127b1565b82525050565b600060e0820190506127e1600083018a61276e565b6127ee602083018961276e565b6127fb60408301886124f3565b61280860608301876124f3565b61281560808301866124f3565b61282260a08301856127a2565b61282f60c08301846127bd565b98975050505050505050565b6000608082019050612850600083018761276e565b61285d60208301866124f3565b61286a60408301856124f3565b61287760608301846127bd565b95945050505050565b600061288b82612468565b9050919050565b61289b81612880565b81146128a657600080fd5b50565b6000813590506128b881612892565b92915050565b6000602082840312156128d4576128d36123fb565b5b60006128e2848285016128a9565b91505092915050565b600082825260208201905092915050565b7f496e76616c696420746f6b656e00000000000000000000000000000000000000600082015250565b6000612932600d836128eb565b915061293d826128fc565b602082019050919050565b6000602082019050818103600083015261296181612925565b9050919050565b7f4e487b7100000000000000000000000000000000000000000000000000000000600052601160045260246000fd5b60006129a282612405565b91506129ad83612405565b92508282026129bb81612405565b915082820484148315176129d2576129d1612968565b5b5092915050565b7f4e487b7100000000000000000000000000000000000000000000000000000000600052601260045260246000fd5b6000612a1382612405565b9150612a1e83612405565b925082612a2e57612a2d6129d9565b5b828204905092915050565b600081519050919050565b60005b83811015612a62578082015181840152602081019050612a47565b60008484015250505050565b6000612a7982612a39565b612a8381856128eb565b9350612a93818560208601612a44565b612a9c81612527565b840191505092915050565b60006060820190508181036000830152612ac18186612a6e565b90508181036020830152612ad58185612a6e565b9050612ae4604083018461276e565b949350505050565b6000612af782612405565b9150612b0283612405565b9250828203905081811115612b1a57612b19612968565b5b92915050565b6000612b2b82612798565b9150612b3683612798565b9250828203905081811260008412168282136000851215161715612b5d57612b5c612968565b5b92915050565b6000604082019050612b78600083018561276e565b612b8560208301846124f3565b9392505050565b6000604082019050612ba160008301856124f3565b612bae60208301846124f3565b9392505050565b6000612bc082612405565b9150612bcb83612405565b9250828201905080821115612be357612be2612968565b5b92915050565b60006040820190508181036000830152612c038185612a6e565b90508181036020830152612c178184612a6e565b90509392505050565b7f416d6f756e74206d7573742062652067726561746572207468616e2030000000600082015250565b6000612c56601d836128eb565b9150612c6182612c20565b602082019050919050565b60006020820190508181036000830152612c8581612c49565b9050919050565b7f54726164696e67206d6f76656420746f20556e69737761700000000000000000600082015250565b6000612cc26018836128eb565b9150612ccd82612c8c565b602082019050919050565b60006020820190508181036000830152612cf181612cb5565b9050919050565b7f496e73756666696369656e742045544820696e20636f6e747261637400000000600082015250565b6000612d2e601c836128eb565b9150612d3982612cf8565b602082019050919050565b60006020820190508181036000830152612d5d81612d21565b9050919050565b6000606082019050612d79600083018661276e565b612d86602083018561276e565b612d9360408301846124f3565b949350505050565b612da4816127b1565b8114612daf57600080fd5b50565b600081519050612dc181612d9b565b92915050565b600060208284031215612ddd57612ddc6123fb565b5b6000612deb84828501612db2565b91505092915050565b7f5472616e73666572206661696c65640000000000000000000000000000000000600082015250565b6000612e2a600f836128eb565b9150612e3582612df4565b602082019050919050565b60006020820190508181036000830152612e5981612e1d565b9050919050565b6000612e6b82612798565b9150612e7683612798565b925082820190508281121560008312168382126000841215161715612e9e57612e9d612968565b5b92915050565b7f496e646578206f7574206f6620626f756e647300000000000000000000000000600082015250565b6000612eda6013836128eb565b9150612ee582612ea4565b602082019050919050565b60006020820190508181036000830152612f0981612ecd565b9050919050565b7f4e487b7100000000000000000000000000000000000000000000000000000000600052603260045260246000fd5b600081519050612f4e8161240f565b92915050565b600060208284031215612f6a57612f696123fb565b5b6000612f7884828501612f3f565b91505092915050565b7f4e6f20746f6b656e7320746f206d696e74000000000000000000000000000000600082015250565b6000612fb76011836128eb565b9150612fc282612f81565b602082019050919050565b60006020820190508181036000830152612fe681612faa565b9050919050565b6000819050919050565b6000819050919050565b600061301c61301761301284612fed565b612ff7565b612405565b9050919050565b61302c81613001565b82525050565b600060c082019050613047600083018961276e565b61305460208301886124f3565b6130616040830187613023565b61306e6060830186613023565b61307b608083018561276e565b61308860a08301846124f3565b979650505050505050565b6000806000606084860312156130ac576130ab6123fb565b5b60006130ba86828701612f3f565b93505060206130cb86828701612f3f565b92505060406130dc86828701612f3f565b915050925092509256fe60806040526012600260006101000a81548160ff021916908360ff16021790555034801561002c57600080fd5b506040516117cb3803806117cb833981810160405281019061004e919061037b565b826000908161005d9190610627565b50816001908161006d9190610627565b5033600460006101000a81548173ffffffffffffffffffffffffffffffffffffffff021916908373ffffffffffffffffffffffffffffffffffffffff1602179055506100c781670de0b6b3a76400006100cf60201b60201c565b505050610786565b80600560008473ffffffffffffffffffffffffffffffffffffffff1673ffffffffffffffffffffffffffffffffffffffff168152602001908152602001600020600082825461011e9190610728565b9250508190555080600360008282546101379190610728565b925050819055508173ffffffffffffffffffffffffffffffffffffffff16600073ffffffffffffffffffffffffffffffffffffffff167fddf252ad1be2c89b69c2b068fc378daa952ba7f163c4a11628f55a4df523b3ef8360405161019c919061076b565b60405180910390a35050565b6000604051905090565b600080fd5b600080fd5b600080fd5b600080fd5b6000601f19601f8301169050919050565b7f4e487b7100000000000000000000000000000000000000000000000000000000600052604160045260246000fd5b61020f826101c6565b810181811067ffffffffffffffff8211171561022e5761022d6101d7565b5b80604052505050565b60006102416101a8565b905061024d8282610206565b919050565b600067ffffffffffffffff82111561026d5761026c6101d7565b5b610276826101c6565b9050602081019050919050565b60005b838110156102a1578082015181840152602081019050610286565b60008484015250505050565b60006102c06102bb84610252565b610237565b9050828152602081018484840111156102dc576102db6101c1565b5b6102e7848285610283565b509392505050565b600082601f830112610304576103036101bc565b5b81516103148482602086016102ad565b91505092915050565b600073ffffffffffffffffffffffffffffffffffffffff82169050919050565b60006103488261031d565b9050919050565b6103588161033d565b811461036357600080fd5b50565b6000815190506103758161034f565b92915050565b600080600060608486031215610394576103936101b2565b5b600084015167ffffffffffffffff8111156103b2576103b16101b7565b5b6103be868287016102ef565b935050602084015167ffffffffffffffff8111156103df576103de6101b7565b5b6103eb868287016102ef565b92505060406103fc86828701610366565b9150509250925092565b600081519050919050565b7f4e487b7100000000000000000000000000000000000000000000000000000000600052602260045260246000fd5b6000600282049050600182168061045857607f821691505b60208210810361046b5761046a610411565b5b50919050565b60008190508160005260206000209050919050565b60006020601f8301049050919050565b600082821b905092915050565b6000600883026104d37fffffffffffffffffffffffffffffffffffffffffffffffffffffffffffffffff82610496565b6104dd8683610496565b95508019841693508086168417925050509392505050565b6000819050919050565b6000819050919050565b600061052461051f61051a846104f5565b6104ff565b6104f5565b9050919050565b6000819050919050565b61053e83610509565b61055261054a8261052b565b8484546104a3565b825550505050565b600090565b61056761055a565b610572818484610535565b505050565b5b818110156105965761058b60008261055f565b600181019050610578565b5050565b601f8211156105db576105ac81610471565b6105b584610486565b810160208510156105c4578190505b6105d86105d085610486565b830182610577565b50505b505050565b600082821c905092915050565b60006105fe600019846008026105e0565b1980831691505092915050565b600061061783836105ed565b9150826002028217905092915050565b61063082610406565b67ffffffffffffffff811115610649576106486101d7565b5b6106538254610440565b61065e82828561059a565b600060209050601f831160018114610691576000841561067f578287015190505b610689858261060b565b8655506106f1565b601f19841661069f86610471565b60005b828110156106c7578489015182556001820191506020850194506020810190506106a2565b868310156106e457848901516106e0601f8916826105ed565b8355505b6001600288020188555050505b505050505050565b7f4e487b7100000000000000000000000000000000000000000000000000000000600052601160045260246000fd5b6000610733826104f5565b915061073e836104f5565b9250828201905080821115610756576107556106f9565b5b92915050565b610765816104f5565b82525050565b6000602082019050610780600083018461075c565b92915050565b611036806107956000396000f3fe608060405234801561001057600080fd5b50600436106100a95760003560e01c806364a7102b1161007157806364a7102b1461016857806370a082311461018457806395d89b41146101b4578063a9059cbb146101d2578063c45a015514610202578063dd62ed3e14610220576100a9565b806306fdde03146100ae578063095ea7b3146100cc57806318160ddd146100fc57806323b872dd1461011a578063313ce5671461014a575b600080fd5b6100b6610250565b6040516100c39190610b72565b60405180910390f35b6100e660048036038101906100e19190610c2d565b6102de565b6040516100f39190610c88565b60405180910390f35b6101046103d0565b6040516101119190610cb2565b60405180910390f35b610134600480360381019061012f9190610ccd565b6103d6565b6040516101419190610c88565b60405180910390f35b6101526106c8565b60405161015f9190610d3c565b60405180910390f35b610182600480360381019061017d9190610c2d565b6106db565b005b61019e60048036038101906101999190610d57565b610779565b6040516101ab9190610cb2565b60405180910390f35b6101bc610791565b6040516101c99190610b72565b60405180910390f35b6101ec60048036038101906101e79190610c2d565b61081f565b6040516101f99190610c88565b60405180910390f35b61020a6109be565b6040516102179190610d93565b60405180910390f35b61023a60048036038101906102359190610dae565b6109e4565b6040516102479190610cb2565b60405180910390f35b6000805461025d90610e1d565b80601f016020809104026020016040519081016040528092919081815260200182805461028990610e1d565b80156102d65780601f106102ab576101008083540402835291602001916102d6565b820191906000526020600020905b8154815290600101906020018083116102b957829003601f168201915b505050505081565b600081600660003373ffffffffffffffffffffffffffffffffffffffff1673ffffffffffffffffffffffffffffffffffffffff16815260200190815260200160002060008573ffffffffffffffffffffffffffffffffffffffff1673ffffffffffffffffffffffffffffffffffffffff168152602001908152602001600020819055508273ffffffffffffffffffffffffffffffffffffffff163373ffffffffffffffffffffffffffffffffffffffff167f8c5be1e5ebec7d5bd14f71427d1e84f3dd0314c0f7b2291e5b200ac8c7c3b925846040516103be9190610cb2565b60405180910390a36001905092915050565b60035481565b600081600560008673ffffffffffffffffffffffffffffffffffffffff1673ffffffffffffffffffffffffffffffffffffffff16815260200190815260200160002054101561045a576040517f08c379a000000000000000000000000000000000000000000000000000000000815260040161045190610e9a565b60405180910390fd5b81600660008673ffffffffffffffffffffffffffffffffffffffff1673ffffffffffffffffffffffffffffffffffffffff16815260200190815260200160002060003373ffffffffffffffffffffffffffffffffffffffff1673ffffffffffffffffffffffffffffffffffffffff168152602001908152602001600020541015610519576040517f08c379a000000000000000000000000000000000000000000000000000000000815260040161051090610f06565b60405180910390fd5b81600560008673ffffffffffffffffffffffffffffffffffffffff1673ffffffffffffffffffffffffffffffffffffffff16815260200190815260200160002060008282546105689190610f55565b9250508190555081600660008673ffffffffffffffffffffffffffffffffffffffff1673ffffffffffffffffffffffffffffffffffffffff16815260200190815260200160002060003373ffffffffffffffffffffffffffffffffffffffff1673ffffffffffffffffffffffffffffffffffffffff16815260200190815260200160002060008282546105fb9190610f55565b9250508190555081600560008573ffffffffffffffffffffffffffffffffffffffff1673ffffffffffffffffffffffffffffffffffffffff16815260200190815260200160002060008282546106519190610f89565b925050819055508273ffffffffffffffffffffffffffffffffffffffff168473ffffffffffffffffffffffffffffffffffffffff167fddf252ad1be2c89b69c2b068fc378daa952ba7f163c4a11628f55a4df523b3ef846040516106b59190610cb2565b60405180910390a3600190509392505050565b600260009054906101000a900460ff1681565b600460009054906101000a900473ffffffffffffffffffffffffffffffffffffffff1673ffffffffffffffffffffffffffffffffffffffff163373ffffffffffffffffffffffffffffffffffffffff161461076b576040517f08c379a000000000000000000000000000000000000000000000000000000000815260040161076290611009565b60405180910390fd5b6107758282610a09565b5050565b60056020528060005260406000206000915090505481565b6001805461079e90610e1d565b80601f01602080910402602001604051908101604052809291908181526020018280546107ca90610e1d565b80156108175780601f106107ec57610100808354040283529160200191610817565b820191906000526020600020905b8154815290600101906020018083116107fa57829003601f168201915b505050505081565b600081600560003373ffffffffffffffffffffffffffffffffffffffff1673ffffffffffffffffffffffffffffffffffffffff1681526020019081526020016000205410156108a3576040517f08c379a000000000000000000000000000000000000000000000000000000000815260040161089a90610e9a565b60405180910390fd5b81600560003373ffffffffffffffffffffffffffffffffffffffff1673ffffffffffffffffffffffffffffffffffffffff16815260200190815260200160002060008282546108f29190610f55565b9250508190555081600560008573ffffffffffffffffffffffffffffffffffffffff1673ffffffffffffffffffffffffffffffffffffffff16815260200190815260200160002060008282546109489190610f89565b925050819055508273ffffffffffffffffffffffffffffffffffffffff163373ffffffffffffffffffffffffffffffffffffffff167fddf252ad1be2c89b69c2b068fc378daa952ba7f163c4a11628f55a4df523b3ef846040516109ac9190610cb2565b60405180910390a36001905092915050565b600460009054906101000a900473ffffffffffffffffffffffffffffffffffffffff1681565b6006602052816000526040600020602052806000526040600020600091509150505481565b80600560008473ffffffffffffffffffffffffffffffffffffffff1673ffffffffffffffffffffffffffffffffffffffff1681526020019081526020016000206000828254610a589190610f89565b925050819055508060036000828254610a719190610f89565b925050819055508173ffffffffffffffffffffffffffffffffffffffff16600073ffffffffffffffffffffffffffffffffffffffff167fddf252ad1be2c89b69c2b068fc378daa952ba7f163c4a11628f55a4df523b3ef83604051610ad69190610cb2565b60405180910390a35050565b600081519050919050565b600082825260208201905092915050565b60005b83811015610b1c578082015181840152602081019050610b01565b60008484015250505050565b6000601f19601f8301169050919050565b6000610b4482610ae2565b610b4e8185610aed565b9350610b5e818560208601610afe565b610b6781610b28565b840191505092915050565b60006020820190508181036000830152610b8c8184610b39565b905092915050565b600080fd5b600073ffffffffffffffffffffffffffffffffffffffff82169050919050565b6000610bc482610b99565b9050919050565b610bd481610bb9565b8114610bdf57600080fd5b50565b600081359050610bf181610bcb565b92915050565b6000819050919050565b610c0a81610bf7565b8114610c1557600080fd5b50565b600081359050610c2781610c01565b92915050565b60008060408385031215610c4457610c43610b94565b5b6000610c5285828601610be2565b9250506020610c6385828601610c18565b9150509250929050565b60008115159050919050565b610c8281610c6d565b82525050565b6000602082019050610c9d6000830184610c79565b92915050565b610cac81610bf7565b82525050565b6000602082019050610cc76000830184610ca3565b92915050565b600080600060608486031215610ce657610ce5610b94565b5b6000610cf486828701610be2565b9350506020610d0586828701610be2565b9250506040610d1686828701610c18565b9150509250925092565b600060ff82169050919050565b610d3681610d20565b82525050565b6000602082019050610d516000830184610d2d565b92915050565b600060208284031215610d6d57610d6c610b94565b5b6000610d7b84828501610be2565b91505092915050565b610d8d81610bb9565b82525050565b6000602082019050610da86000830184610d84565b92915050565b60008060408385031215610dc557610dc4610b94565b5b6000610dd385828601610be2565b9250506020610de485828601610be2565b9150509250929050565b7f4e487b7100000000000000000000000000000000000000000000000000000000600052602260045260246000fd5b60006002820490506001821680610e3557607f821691505b602082108103610e4857610e47610dee565b5b50919050565b7f496e73756666696369656e742062616c616e6365000000000000000000000000600082015250565b6000610e84601483610aed565b9150610e8f82610e4e565b602082019050919050565b60006020820190508181036000830152610eb381610e77565b9050919050565b7f496e73756666696369656e7420616c6c6f77616e636500000000000000000000600082015250565b6000610ef0601683610aed565b9150610efb82610eba565b602082019050919050565b60006020820190508181036000830152610f1f81610ee3565b9050919050565b7f4e487b7100000000000000000000000000000000000000000000000000000000600052601160045260246000fd5b6000610f6082610bf7565b9150610f6b83610bf7565b9250828203905081811115610f8357610f82610f26565b5b92915050565b6000610f9482610bf7565b9150610f9f83610bf7565b9250828201905080821115610fb757610fb6610f26565b5b92915050565b7f4f6e6c7920666163746f72790000000000000000000000000000000000000000600082015250565b6000610ff3600c83610aed565b9150610ffe82610fbd565b602082019050919050565b6000602082019050818103600083015261102281610fe6565b905091905056fea164736f6c634300081c000aa164736f6c634300081c000a",
  "linkReferences": {},
  "deployedLinkReferences": {}
}